:020000040800F2
:1000000060220020410200080B20000807200008A1
:1000100009200008110F00088124000800000000DA
:10002000000000000000000000000000A90100081E
:10003000130F000800000000ED010008E520000893
:100040005B0200085B0200085B0200085B0200081C
:100050005B0200085B0200085B0200085B0200080C
:10006000150F00085B0200085B0200085B02000835
:100070005B0200085B0200085B0200085B020008EC
:100080005B0200085B0200085B0200085B020008DC
:100090005B0200085B0200085B0200085B020008CC
:1000A0005B0200085B0200085B0200085B020008BC
:1000B0005B0200085B0200085B0200085B020008AC
:1000C0005B0200085B0200085B0200085B0200089C
:1000D0005B0200085B0200085B0200085B0200088C
:1000E0005B0200085B0200085B02000800F002F8F7
:1000F00000F04AF80AA090E8000C82448344AAF178
:100100000107DA4501D100F03FF8AFF2090EBAE875
:100110000F0013F0010F18BFFB1A43F0010318473B
:10012000F8490000184A0000103A24BF78C878C186
:10013000FAD8520724BF30C830C144BF04680C60ED
:10014000704700000023002400250026103A28BF35
:1001500078C1FBD8520728BF30C148BF0B60704739
:10016000642900F0F780732900F0128200207047A4
:100170001FB59DE8030000F09DFC00F08FFA1FBD45
:1001800010B500F0F4FA10BD00F057FB1146FFF770
:10019000EFFF02F04FFB00F05BFC03B4FFF7F0FF52
:1001A00003BC00F019FE0000224B19680868B0E893
:1001B000F00F80F30988BFF36F8F4FF0000080F3DA
:1001C00011884EF00D0E70470000000006480068D0
:1001D000006880F3088862B661B6BFF34F8FBFF343
:1001E0006F8F00DF00BF00BF08ED00E0EFF3098074
:1001F000BFF36F8F0F4B1A6820E9F00F106008B53E
:100200004FF0500080F31188BFF34F8FBFF36F8F13
:1002100003F038FE4FF0000080F31188BDE808407D
:1002200019680868B0E8F00F80F30988BFF36F8F92
:10023000704700BF24000020EFF3058070470000E6
:100240000948804709480047FEE7FEE7FEE7FEE76A
:10025000FEE7FEE7FEE7FEE7FEE7FEE704480549A6
:10026000054A064B7047000095210008ED00000884
:10027000601C002060220020601E0020601E002004
:100280000FB4044910B503AA029800F085F910BC18
:100290005DF814FB581B00202DE9F0410E46044682
:1002A000002020622046E168884730B3252805D029
:1002B000D4E901219047206A401CF2E7E16820461A
:1002C00000278847050018D0A5F14100192802D859
:1002D00020354FF400673246294620462760FFF755
:1002E0003FFF40B1012804D0F61D26F0070608366E
:1002F000D8E7361DD6E72846DAE7206ABDE8F08160
:1003000070B50C460546012A05D02878800600D530
:10031000EA69002302E0012305E05B1C934202D25C
:10032000E05C0028F9D1A869E618C01AA861286A1B
:10033000184428622846AFF3008004E0D5E9012183
:1003400014F8010B9047B442F8D32846AFF300806D
:1003500070BD00002DE9F0410646002410687529A3
:10036000314616A510D0AFF30080002802DA4042D3
:1003700013A507E031688A0701D512A502E04907F5
:1003800004D511A5012401E0AFF3008000210A2269
:1003900006F1240709E0B0FBF2FCB0FBF2F302FB2C
:1003A0001C00303078541846491C0028F3D12346ED
:1003B0002A463046BDE8F04100F07FB8000000005A
:1003C0002D0000002B00000020000000032A40F256
:1003D000308010F0030C00F0158011F8013BBCF1E7
:1003E000020F624498BF11F801CB00F8013B38BFFF
:1003F00011F8013BA2F1040298BF00F801CB38BF0D
:1004000000F8013B11F0030300F0D880083AC0F077
:10041000088051F8043B083A51F804CBA0E80810D2
:10042000F5E7121D5CBF51F8043B40F8043BAFF305
:100430000080D20724BF11F8013B11F801CB48BF5F
:1004400011F8012B24BF00F8013B00F801CB48BF95
:1004500000F8012B704702F0FF0343EA032242EA4F
:10046000024200F0DFB84FF0000200B51346944698
:100470009646203922BFA0E80C50A0E80C50B1F1FC
:100480002001BFF4F7AF090728BFA0E80C5048BF10
:100490000CC05DF804EB890028BF40F8042B08BFAE
:1004A000704748BF20F8022B11F0804F18BF00F8AA
:1004B000012B70477047704770472DE9F0470D4694
:1004C00099469246044600F124080168880604D53E
:1004D000E06921F01001216000E00120A84201DD67
:1004E000471B00E00027A1697A1902EB0900081AEE
:1004F000A0612078C00602D42046AFF30080002619
:1005000008E0D4E901211AF806009047206A401C4F
:10051000761C20624E45F4DB2078C0060AD52046C2
:10052000AFF3008006E0D4E9012130209047206A33
:10053000401C2062381EA7F10107F4DC07E0D4E973
:10054000012118F805009047206A401C2062281EEF
:10055000A5F10105F3DC2046AFF30080207800060A
:1005600002D50220BDE8F0870120FBE710B5436902
:1005700013B1AFF3008001E0FFF7C2FE012010BD10
:10058000127800F124010A7000224A700122EDE77E
:1005900011684FF0FF32E9E7074B70B50D467B4419
:1005A00000F065F80446284600F074F810B14FF0EA
:1005B000FF3070BD204670BDA321000010B5203A69
:1005C000C0F00B80B1E81850203AA0E81850B1E80C
:1005D0001850A0E81850BFF4F5AF5FEA027C24BFC2
:1005E000B1E81850A0E8185044BF18C918C0BDE8B9
:1005F00010405FEA827C24BF51F8043B40F8043B82
:1006000008BF7047D20728BF31F8023B48BF11F836
:10061000012B28BF20F8023B48BF00F8012B704790
:100620004FF000020429C0F0128010F0030C3FF4D8
:100630001CAFCCF1040CBCF1020F18BF00F8012B69
:10064000A8BF20F8022BA1EB0C01FFF70EBF5FEA59
:10065000C17C24BF00F8012B00F8012B48BF00F833
:10066000012B704701694A1C02610878704700B588
:100670008FB0CDE901310021059105497944CDE9DB
:10068000031011466846FFF707FE0FB000BD0000DB
:10069000E5FFFFFF007B00F08000704710B5424887
:1006A0005421FFF7E0FE41485421FFF7DCFE4048AB
:1006B0005421FFF7D8FE3F493B483C4A3F4B086076
:1006C0003D490A603A491960531C0365481C10658E
:1006D000012008653B48344A39A1784400F01CF9F0
:1006E00020B9384878440A3800F0BBF937482F4A17
:1006F00035A1784400F010F920B9344878440A381C
:1007000000F0AFF932482A4A2FA1784400F004F9EA
:1007100020B92F4878440A3800F0A3F94023224832
:10072000DC000021224600F0D4F820B125487844AE
:10073000543800F096F91D4822464023002100F06D
:10074000C8F820B121487844543800F08AF9184894
:1007500022461023002100F0BCF8002806D01C48D7
:100760007844BDE81040563800F07BB910BD104801
:1007700070B5006D20F001040B4800F043F90B4800
:1007800000F040F90A4800F03DF909E0206D20F042
:100790000105204600F036F9204600F073F82C469B
:1007A000002CF3D170BD0000041B0020581B00205A
:1007B000AC1B00209C000020A0000020A400002012
:1007C000720000000A44000077000000F6430000B9
:1007D000E24300000EB5CDE9000100F0DDFA029021
:1007E00069460120ABBE0EBD08B5694600900220E7
:1007F000ABBE08BD1FB58DE8070069460520ABBE3E
:1008000004B010BD1FB58DE80F0069460620ABBED1
:10081000F6E708B5694600900920ABBE08BD1CB5D7
:10082000CDE9000169460A20ABBE1CBD704708B582
:10083000694600900C20ABBE08BD754600F018F963
:10084000AE4605006946534620F00700854618B0BD
:1008500020B5FFF703FDBDE820404FF000064FF044
:1008600000074FF000084FF0000B21F00701AC46E5
:10087000ACE8C009ACE8C009ACE8C009ACE8C00904
:100880008D46704770B50446051F00F0F7F8006804
:10089000002C14BF446870BD002C18BFAC423CBF94
:1008A00020466468F8D301680A18AA4218BF456058
:1008B00003D12A6805461144016028684119A14204
:1008C0001CBF6C6070BD6168696021680844286065
:1008D00070BD70B5C468A50713D0650211D4B2F518
:1008E000807F09D0B2F5007F06D0B2F5806F08D1C5
:1008F000012300F1240106E05D1E6FF07F46B54242
:1009000001D3012070BD0161C361416024F47061B5
:100910001143C160002070BD2DE9F0410C4607462F
:100920001646104600F06EF82078611C61280AD047
:10093000722802D077283CD102E00125002405E08E
:100940000225042402E0082448F2020511F8010BF4
:100950002B2806D0622809D011F8010C74280AD07F
:100960000BE045F0030544F00204EFE745F0040511
:1009700044F00104EAE744F0100438462146FFF74A
:1009800029FF411C15D00021316171604FF40071C5
:10099000F560F1617061200704D530460222002124
:1009A00000F0E6F8306D40F0010030653046BDE8FB
:1009B000F0810020FBE72DE9F0410D460646104C82
:1009C000206DC10704D0410804D020F00104F7E7EE
:1009D00022460EE0542000F09CF807000ED0206D57
:1009E00047F001010843542120653846FFF73BFDDD
:1009F0003A4629463046BDE8F0418DE70020D6E76B
:100A0000041B00202DE9F04704464FF000094FF089
:100A1000FF37C568D4E90486A80707D0204600F050
:100A200057F93046FFF7E0FE002802DA3846BDE805
:100A3000F087280502D54046FFF724FF4C212046C9
:100A4000FFF711FD206D20F0010020654846EEE71C
:100A500010B50446AFF300802046BDE81040FFF714
:100A60009CBB10B500F07EF9BDE8104000F074B9F1
:100A700000487047001C0020704700000048704785
:100A8000081C0020704770477047704738B504460F
:100A90000A4600206946AFF30080002808BF38BD31
:100AA00002460099204600F0A4F9012038BD01203B
:100AB00000F0F3B9F8B5AFF30080054600200C460E
:100AC000102000BF0646A819A0420DD9324669463B
:100AD0000020AFF30080070008BF00F0DEF90098A7
:100AE000A04218BF0546C419FFF7C8FF05600746B6
:100AF000F01D20F007004619284600F073F9B442B3
:100B000008BFF8BDA21B31463868BDE8F84000F0C8
:100B100070B970B50646FFF7B1FF056806F10B0026
:100B200020F00704B4429CBF002070BD2B466A68C9
:100B3000BAB11068A04210D304F1080188423CBF4A
:100B40005068586007D35168101941601168091B3B
:100B5000016058601460101D70BD13465268002A71
:100B6000E7D121462846FFF791FF0028DED170BD6E
:100B70002DE9F041044616460D464769007B800783
:100B80002ED03846FFF745FE50BB3EB3012E02D0B3
:100B9000022E25D104E0204600F045F905441DE071
:100BA0003846FFF744FEE168002841F01001E1609B
:100BB00005DA204600F058F80120BDE8F081C903AD
:100BC0000BD56268E16A914200D81146A2691144CE
:100BD0002269891A814200DD08460544002D01DAA8
:100BE0000220EAE7E16A6068E268814206D2910386
:100BF000E06203D522F4003141F01002A66900271B
:100C0000AE4213DCE16A814201D90B4600E00346A3
:100C100003EB060C2369ACEB030CAC4506DD81420B
:100C200001D98C4600E084469C4505D1A760276029
:100C300042F02000A5620DE0AD1BE669AE1B8142CB
:100C4000A66000D90846C01A281A206058196060AA
:100C500022F0200003490840E060002084F848703A
:100C6000ABE70000BFCFD7FFC16821F4001141F00E
:100C70008001C16000218160016070472DE9F0476B
:100C8000814614460E464FF0FF383248D568576902
:100C9000054209D03846A169FFF7C1FD002811DBE4
:100CA0002C48C0430540E5602B463246494638464D
:100CB000FFF7A0FDA16920F00042B21A11440028FC
:100CC000A16103D02046FFF7CFFF4046BDE8F08783
:100CD00070B504460569C06A6168884200D8084654
:100CE000E16821F42011E160C90312D5A84208D0BF
:100CF0002246411B2846FFF7C1FF10B14FF0FF30DD
:100D000070BD0020E562C4E90150E06820F4803045
:100D1000E060002070BD10B50446C06820F02000DF
:100D2000E060A16AA06988420DD02046FFF7D0FF9D
:100D3000E06820F4405040F01000E060A06AA0613C
:100D40002069E062606044F24001E0688843E0604E
:100D500010BD000010000200002801D000F03CB8D7
:100D60007047000010B5014602A000F07DF8012098
:100D700010BD000053494752545245443A20526531
:100D80006469726563743A2063616E2774206F70C2
:100D9000656E3A200000000010B5431C02E010F818
:100DA000011B71B18107FAD14FF0013202C88C1AD0
:100DB0008C4314EAC211F9D0C01A0A0603D0C01E2F
:100DC00010BDC01A10BD0A0401D0801E10BD09025A
:100DD000FCD0401E10BD000001491820ABBEFEE74C
:100DE0002600020000210160C0E9011070471020B8
:100DF0007047034640688C46002818BF88423CBFB5
:100E000003464068F8D318681844884207D00CF1AC
:100E1000030020F00700001D411A521A0146081D68
:100E20000A60FFF72FBD10B50146C268900703D0D6
:100E3000900607D5886A0AE000F03EF801210160BB
:100E4000881E10BD8B69486818440B69C01A91F858
:100E500048301BB191F84910401A10BD1103FCD560
:100E60000028FADD401E10BD70B505460C460A206C
:100E700000E06D1C00F018F835B128780028F8D192
:100E800002E0641C00F010F814B120780028F8D1BA
:100E9000BDE870400A2000F007B810B500F010F867
:100EA000BDE81040FFF758BF08B569468DF800004F
:100EB0000320ABBE08BD000000487047001C0020A6
:100EC00010B5012805D0002103A0FFF7CDFF0120B8
:100ED00010BD09A1F8E7000053494752544D454D54
:100EE0003A204F7574206F662068656170206D65CB
:100EF0006D6F7279000000003A2048656170206DC6
:100F0000656D6F727920636F7272757074656400BD
:100F1000FEE7704704480168490703D504210160D2
:100F200001F002BD70470000140401402DE9F043B8
:100F30000023374F0F2566E001229A400A4060D017
:100F400023F00304E619D6F808809C074FEA147CC6
:100F500005FA0CF909EA0804DFF8B880404502D127
:100F60004FF0000816E0DFF8B080404502D14FF0A6
:100F700001080FE0DFF8A480404502D14FF00208DD
:100F800008E0DFF89C80404502D14FF0030801E003
:100F90004FF0040808FA0CF8A04515D1D6F808C09F
:100FA0002CEA090CC6F808C01E4E3468944334601D
:100FB000341D266896432660241D266896432660C5
:100FC000241D266896432660FF2A01D8064601E0C4
:100FD00000F104064FEA830401D9A4F12004D6F8F5
:100FE00000C005FA04F82CEA080C4FF0040808FACF
:100FF00004F84CEA080CC6F800C0C46824EA0204ED
:10100000C46003F1010331FA03F295D1BDE8F08326
:101010000000014000080140000C014000100140A8
:1010200000140140000401402DE9F84FDFF8B891A9
:10103000002409F1040A0AF1040B23460F270BF1DF
:10104000040EC9E00125A5402A40AA427DD1674E81
:10105000D1F804C0ACEB0608B44532D014DCBCF1C6
:10106000030F3AD009DCBCF1000F2AD0BCF1010F0C
:101070001CD0BCF1020F31D11DE0BCF1110F17D013
:10108000BCF1120F2AD119E0B8F5881F19D006DC7F
:10109000B8F5803F15D0B8F5801F1FD111E0B8F525
:1010A000001F0ED0B8F5041F18D10AE0CB6815E078
:1010B000CB681B1D12E0CB6808330FE0CB680C3304
:1010C0000CE08B682BB1012B4FF0080303D0456176
:1010D00004E0042302E0056100E00023FF2A01D8B8
:1010E000064601E000F104064FEA840501D9A5F1A6
:1010F0002005D6F8008007FA05FC28EA0C0803FA58
:1011000005F548EA0508C6F800804D68ED0062D58F
:10111000374DAE6946F00106AE61AD6924F00306B5
:1011200005F001050095334D06EB050CDCF8085081
:10113000A607360F07FA06F825EA0805DFF8B88093
:10114000404503D14FF0000817E044E0DFF8AC80E1
:10115000404502D14FF001080FE0DFF8A480404580
:1011600002D14FF0020808E0DFF89880404502D134
:101170004FF0030801E04FF0040808FA06F848EAC7
:101180000508CCF808804D68D9F80060ED034D469D
:1011900001D5164300E096432E604D68DAF80060F2
:1011A000AD03554601D5164300E096432E604D68C9
:1011B000DBF80060ED025D4601D5164300E0964382
:1011C0002E604D68DEF80060AD02754601D516430D
:1011D00000E096432E60641C0D682A46E5407FF4CB
:1011E00031AFBDE8F88F000000040140000011108D
:1011F000001002400000014000080140000C0140C6
:1012000000100140001401400AB101617047090457
:10121000FBE70000014880687047000014000020D0
:1012200002488168027811448160704714000020F0
:10123000074810B5016841F010010160032000F07B
:101240008BF80F2000F006F800F024F8002010BD05
:101250000020024070B50D4D04464FF47A71287895
:10126000B1FBF0F00A490968B1FBF0F000F018FD9D
:1012700048B9102C07D200222146501E00F04CF82D
:1012800000206C6070BD012070BD000014000020C3
:10129000200000200F4808B5816941F001018161FB
:1012A000816901F001010091C16941F08051C16182
:1012B000C069002200F0805000900F21901E00F0C5
:1012C0002BF80548416821F0E06141F00071416070
:1012D00008BD0000001002400000014000280DDBA6
:1012E00000F01F02012191404009800000F1E02040
:1012F000C0F88011BFF34F8FBFF36F8F7047002886
:1013000009DB00F01F02012191404009800000F13B
:10131000E020C0F800117047F0B40E4B1B680C467B
:10132000C3F30223C3F10705042D00D90425191DB9
:10133000072901D2002300E0DB1E012606FA05F191
:10134000491E214099409E40761E16403143F0BC14
:1013500001F097B80CED00E0064900F007020868BC
:101360004FF6FF03184040EA0220034A104308608A
:10137000704700000CED00E00000FA052DE9F04791
:101380000F46050061D0434E306800F00700B842B8
:1013900009D2306820F0070038433060306800F030
:1013A0000700B84251D128683B4C810712D540074D
:1013B00003D5606840F4E06060602878000703D5DA
:1013C000606840F4605060606068A96820F0F000D8
:1013D000084360602878C00728D06868012810D0CA
:1013E0002168022810D0890700292EDA616821F0CF
:1013F000030101436160FFF70DFF804641F2883928
:101400000DE021688903EFE78901EDE7FFF702FFAF
:10141000A0EB0801494502D90320BDE8F0876068C8
:10142000696800F00C00B0EB810FEFD1306800F07C
:101430000700B8420BD9306820F00700384330600D
:10144000306800F00700B84201D00120E5E72878B5
:10145000400705D56068E96820F4E06008436060F3
:101460002878000706D56068296920F4605040EAB2
:10147000C100606000F038F86168084AC1F30311E8
:10148000515CC8400649086006480068FFF7E2FE64
:101490000020C2E70020024000100240D04A0008AD
:1014A0002000002018000020044805490068496811
:1014B000044AC1F30221515CC8407047200000205B
:1014C00000100240E04A00080448054900684968E5
:1014D000044AC1F3C221515CC8407047200000207B
:1014E00000100240E04A000812A185B00FC98DE843
:1014F0000F0014A0144A006804905168134801F0CA
:101500000C03042B10D0082B0ED1C1F38343C90365
:101510001DF803000AD5516804AAC1F34041515C8B
:101520000A4A5043B0FBF1F005B070470849484300
:10153000FAE7000002030405060708090A0B0C0D70
:101540000E0F1010010200000010024000127A007D
:1015500000093D002DE9F84F040070D02078C04DFF
:10156000C00749D06868C0F38100012807D06868C7
:10157000C0F38100022809D16868C00306D5286835
:10158000800339D560680028E7D035E06068B0F5A1
:10159000803F0BD010B1B0F5A02F11D0286820F4F7
:1015A00080302860286820F4802002E0286840F419
:1015B00080302860606890B1FFF72CFE06460AE094
:1015C000286840F480202860F0E700BFFFF722FE83
:1015D000801B642873D828688003F7D50CE0FFF7D8
:1015E00019FE064605E000BFFFF714FE801B6428C5
:1015F000F0D828688003F7D420789A4E80074FF0FF
:1016000001094FF0000839D5686810F00C0F07D0B9
:101610006868C0F38100022809D16868C00306D455
:101620002868800714D52069012808D110E02069B6
:10163000B0B1C6F80090FFF7EDFD074605E00AE1FE
:10164000FFF7E8FDC01B0228C4D828688007F7D53B
:101650002868616920F0F80040EAC10028600DE0C8
:10166000C6F80080FFF7D6FD074604E0FFF7D2FD7D
:10167000C01B022823D828688007F7D420780007E9
:101680002CD57948A169D9B1C0F80090FFF7C2FD07
:10169000074604E0FFF7BEFDC01B02280FD8686AAA
:1016A0008007F7D571484FF4FA510068B0FBF1F0AC
:1016B000009000BF0098411E0091FAD20EE080E039
:1016C000C0F80080FFF7A6FD074604E0FFF7A2FD83
:1016D000C01B022875D8686A8007F7D420784007B5
:1016E00060D5E8690027C00008D4E86940F0805060
:1016F000E861E869012700F0805000905C480168CB
:10170000C90513D40168834641F480710160FFF775
:1017100081FD824606E000BFFFF77CFDA0EB0A00DA
:1017200064284ED8DBF80000C005F5D5E068012834
:101730000AD008B1052813D0286A20F001002862D9
:10174000286A20F0040002E0286A40F001002862C4
:10175000E06841F2883B98B1FFF75CFD82460BE000
:10176000286A40F004002862EEE700BFFFF752FD50
:10177000A0EB0A0159455AD8286A8007F6D50CE033
:10178000FFF748FD824605E0FFF744FDA0EB0A01A4
:1017900059454CD8286A8007F6D41FB1E86920F073
:1017A0008050E861E06988B36968C1F3810102296A
:1017B00044D00228C6F8608004D0FFF72BFD044611
:1017C00038E034E0FFF726FD074604E0FFF722FD8E
:1017D000C01B02282BD828688001F7D4206AB0F5F6
:1017E000803F05D16868A16820F400300843686034
:1017F000D4E908010843696821F47411084368605A
:10180000C6F86090FFF706FD044606E025E000BF3D
:10181000FFF700FD001B022809D828688001F7D5D2
:101820001BE000BFFFF7F6FC001B022802D90320D3
:10183000BDE8F88F28688001F4D40EE00128F7D0C5
:101840006868226A00F48031914204D1616A00F430
:101850007010884201D00120EAE70020E8E700008C
:10186000001002400000424280044242200000205A
:101870000070004010B5040011D0022084F851001F
:101880002068016821F040010160204600F062F804
:101890000020606584F8510084F8500010BD0120DC
:1018A00010BD70B5040009D0606A002540B1256103
:1018B0006561A56294F8510040B10CE0012070BD53
:1018C0006068B0F5827FF4D0E561F2E784F85050AB
:1018D000204600F040F8022084F85100206801689A
:1018E00021F040010160A088218900F4827001F498
:1018F00004410843A18901F400610843217C01F0FF
:1019000002010843217D01F001010843218B01F40C
:1019100000710843217F01F03801084394F820103A
:1019200001F080010843218D01F400510843216832
:101930000860A069042101EA10402168486020681D
:10194000C16921F40061C1616565012084F851001D
:10195000002070BD704770472DE9F84F044690F89D
:10196000500000271D461646894601280DD04FF02D
:10197000010B84F850B0FFF74DFC804694F85100FD
:10198000BA46012804D0022793E00220BDE8F88F70
:10199000B9F1000F73D0002E71D0032084F85100EC
:1019A000C4F854A0C4F83090A686E686C4F838A0DF
:1019B000A4F83CA0A4F83EA0C4F844A0C4F840A0F9
:1019C000A068B0F5004F09D12068016821F04001FE
:1019D00001602068016841F480410160206801686D
:1019E000490603D4016841F040010160E068B0F5A8
:1019F000006F606803D030B3012E24D041E008B1FD
:101A0000012E1CD1206B21680088C86006E0206888
:101A10008168890709D5216B0988C160206B801C0A
:101A20002063E08E401EE08609E0FFF7F3FBA0EBA9
:101A30000800A84202D3681C01D031E07DB3E08EDB
:101A40000028E4D120E0206B21680078087306E0CC
:101A500020688168890709D5216B09780173206B9B
:101A6000401C2063E08E401EE0860AE0FFF7D2FBB8
:101A7000A0EB0800A84203D3681C02D010E017E0D6
:101A80006DB1E08E0028E3D142462946204600F0A1
:101A9000BDFA08B120206065A06818B106E0FFE734
:101AA000032706E02068C16880680090606D00B17F
:101AB000012784F851B084F850A0384666E72DE934
:101AC000F84F044690F8500000270A9E1D469246A3
:101AD0008B464FF0010901280ED0012084F85000F8
:101AE000FFF798FB804694F85100616801280CD0FC
:101AF000B1F5827F07D102E00220BDE8F88FA1682E
:101B000009B9042801D00227C2E0BBF1000F27D099
:101B1000BAF1000F24D01DB394F85100042802D06C
:101B2000052084F8510000206065C4F838A0E587DE
:101B3000A587C4F830B0E586A58620646064206877
:101B40000168490603D4016841F040010160E06882
:101B5000B0F5006F606805D0E8B3012D46D07FE096
:101B6000012795E008B1012D39D1206B216800884B
:101B7000C860206B801C2063E08E401EE0862EE053
:101B80002068816889070FD5E18E69B1B9F1010F2D
:101B90000AD1216B0988C160206B801C2063E08E14
:101BA000401EE0864FF0000920688168C9070CD00C
:101BB000E18F51B1C068A16B0880A06B801CA0634D
:101BC000E08F401EE0874FF00109FFF723FBA0EBF9
:101BD0000800B04200E009E001D3701C50D1E08E53
:101BE0000028CDD1E08F0028CAD13FE0206B2168CA
:101BF00000780873206B401C2063E08E401EE08656
:101C00002EE02068816889070FD5E18E69B1B9F1AE
:101C1000010F0AD1216B09780173206B401C2063EE
:101C2000E08E401EE0864FF0000920688168C907F9
:101C30000CD0E18F51B1C068A16B0870A06B401C43
:101C4000A063E08F401EE0874FF00109FFF7E2FA42
:101C5000A0EB0800B04202D3701C01D010E07EB1AE
:101C6000E08E0028CDD1E08F0028CAD1424631460F
:101C7000204600F0CBF928B101272020606507E05D
:101C8000032705E0A06818B92068C1688068009043
:101C9000012084F85100002084F8500038462CE7D9
:101CA00010B5401EB0F1807F01D3012010BD4FF070
:101CB000E02460610F21601700F0E3FB0020A061C9
:101CC00007202061002010BD70B590F83C20012A4B
:101CD00026D0012480F83C40022280F83D20036891
:101CE0005A689D6822F070060A6832435A600D4BAC
:101CF00002689A4208D0B2F1804F05D00A4B9A424E
:101D000002D00A4B9A4204D1496825F08003194356
:101D1000916080F83D40002180F83C10084670BD7D
:101D2000022070BD002C014000040040000800406B
:101D300070B5044690F83C000D4601280AD00120F9
:101D400084F83C0042B1042A18D0082A2AD00C2A70
:101D50004DD139E0022070BD206800F061FA2068A2
:101D6000816941F0080181612068816921F00401E5
:101D70008161206881692A69114311E0206800F0BF
:101D800077FA2068816941F4006181612068816986
:101D900021F480618161206881692A6941EA022118
:101DA000816124E0206800F08FFA2068C16941F069
:101DB0000801C1612068C16921F00401C161206886
:101DC000C1692A69114311E0206800F0A9FA20686E
:101DD000C16941F40061C1612068C16921F4806179
:101DE000C1612068C1692A6941EA0221C1610020FC
:101DF00084F83C0070BD10B5040003D094F83D0099
:101E000010B107E0012010BD002084F83C002046FE
:101E100000F01EF8022084F83D00211D206800F02B
:101E2000BBF9012084F8460084F83E0084F83F00A6
:101E300084F8400084F8410084F8420084F84300AC
:101E400084F8440084F8450084F83D00002010BD6B
:101E50007047000010B50446022249B104290ED093
:101E6000082913D094F84100012816D0012010BD94
:101E700094F83E000128F9D184F83E200FE094F850
:101E80003F000128F2D184F83F2008E094F8400098
:101E90000128EBD184F8402001E084F841200122A0
:101EA000206800F0AFF90F492068884203D1426CE6
:101EB00042F4004242642068884208D0B0F1804F6A
:101EC00005D00949884202D00849884204D1816876
:101ED00001F00701062903D0016841F0010101600A
:101EE000002010BD002C014000040040000800400C
:101EF00070B5040004D094F83D00002510B106E050
:101F0000012070BD84F83C50204600F022F82420C7
:101F100084F83D002068C16821F40051C16020466A
:101F200000F020FA2068016921F4904101612068E5
:101F3000416921F02A0141612068C16841F40051E2
:101F4000C1602564202084F83D0084F83E00002014
:101F500070BD70472DE9F843044690F83D001F46D8
:101F600016460D4620284CD1C5B1BEB194F83C00B0
:101F7000012846D0012084F83C004FF00008C4F846
:101F80004080212084F83D00FFF744F9A684814673
:101F9000E684A068B0F5805F03D004E00120BDE8CE
:101FA000F883206928B12E465FF0000584F83C8054
:101FB0000EE00026FAE78021204600F02FFAA0B9B3
:101FC000AEB116F8010B21684860E08C401EE08439
:101FD000E08C4B464FF0000200970028EBD14FF009
:101FE0004001204600F01AFA30B10320D7E735F857
:101FF000020BC0F30800E6E7202084F83D00002033
:10200000CDE70220CBE7FEE7FEE7FEE738B50B465B
:10201000009204460022802100F008F8002804D035
:10202000606D40F020006065032038BD2DE9F84365
:102030001E46914688460446089DFFF7EBF8401B74
:10204000351AFFF7E7F8074625480068C0F3CB309C
:10205000684338E0701C37D0FFF7DCF8C01BA8429B
:1020600003D215B1009860B32CE02068416821F0DC
:10207000E00141606068B0F5827F0BD1A068B0F5E7
:10208000004F02D0B0F5806F04D12068016821F0C4
:1020900040010160A06AB0F5005F09D120680168C5
:1020A00021F4005101602068016841F40051016091
:1020B000012084F85100002084F850000320BDE87E
:1020C000F8830025401E00902068816838EA0100EE
:1020D00004D000214945BDD10020F0E70121F9E7F6
:1020E0002000002010B5FFF79BF802F017FB012835
:1020F00003D0BDE8104001F04BBF10BD30B58FB02C
:1021000028216846FEF7AFF914210AA8FEF7ABF9BB
:1021100001210804CDE90010002402940225049155
:10212000CDE90750800009906846FFF713FA20B107
:102130008D220CA110A0FEF7A3F80F20CDE90A050F
:102140004FF48060CDE90C4001210AA80E94FFF7FE
:1021500015F9002804D09A2202A107A0FEF790F8F2
:102160000FB030BD2E2E2F436F72652F5372632F29
:102170006D61696E2E6300004572726F7220486156
:102180006E646C65722061743A25733A25640D0A99
:102190000000000070470000F0B50268164B174CB5
:1021A000174D4FF08047984205D0B84203D0A04267
:1021B00001D0A84203D122F070064A683243984207
:1021C00005D0B84203D0A04201D0A84203D122F4E6
:1021D0004074CA6822434C6922F0800222430260A4
:1021E0008A68C2620A688262984201D10969016301
:1021F00001214161F0BD0000002C014000040040BD
:102200000008004010B501F01F030121046A994045
:102210008C430462016A9A401143016210BD0000C0
:1022200030B5026A22F001020262026A43688469E0
:1022300024F073050C682C4322F002058A682A43B7
:102240000A4DA8420BD122F00805CA6823F4407356
:102250002A434D6922F004021D438B692B434360DE
:10226000846149684163026230BD0000002C014076
:1022700030B5026A22F010020262026A4368846981
:102280000D6824F4E64444EA05248D6822F0200217
:1022900042EA05120B4DA8420ED1CD6822F0800211
:1022A00042EA05124D6923F4406343EA85038D69D0
:1022B00022F0400243EA85034360846149688163F8
:1022C000026230BD002C014030B5026A22F48072F7
:1022D0000262036A4268C46923F4007324F0730540
:1022E0000C682C438D6843EA05230C4DA8420ED19F
:1022F000CD6823F4006343EA05234D6922F440527C
:1023000042EA05128D6923F4806342EA05124260B5
:10231000C4614968C163036230BD0000002C014004
:1023200030B5026A22F480520262046A4268C369CC
:102330000D6823F4E64343EA05238D6824F4005432
:1023400044EA0534064DA84204D14D6922F4804286
:1023500042EA85124260C36149680164046230BD8B
:10236000002C014070B5044600680169E26821F460
:102370004051114301612169A06808436169084324
:102380002168CA6841F20C639A430243CA6020681C
:102390004169A26921F44071114341611E492068DD
:1023A000884202D1FFF790F801E0FFF77DF800EBDB
:1023B000C00101EB0012606864218000B2FBF0F301
:1023C000B3FBF1F36FF018067343B2FBF0F5B2FB09
:1023D000F0F605EB8305322303EB0515B5FBF1F5AC
:1023E000B6FBF1F605F0F00505EB0615B2FBF0F6CD
:1023F000B2FBF0F0B0FBF1F06FF01802504306EBC7
:10240000800003EB0010B0FBF1F0216800F00F003A
:102410002844886070BD0000003801402DE9F0417B
:10242000984617460E460446069D1DE0681C1BD0C4
:102430002DB1FEF7EFFEA0EB0800A84214D92068EA
:10244000C16821F4D071C1602068416921F00101A7
:102450004161202084F83D0084F83E00002084F88B
:102460003C000320BDE8F0812068006836EA0000E7
:1024700004D00020B842D9D00020F3E70120F9E7CA
:10248000FEE70907090E002804DB00F1E02080F8D0
:102490000014704700F00F0000F1E02080F8141DD8
:1024A0007047000070B520496423322500220C6873
:1024B000082832D2DFE800F004060A10161E222A8D
:1024C00063630AE06263086883631AE06363086811
:1024D00082630868C5631DE06563086882630868F5
:1024E000C36317E06263086883630868C2630868AF
:1024F000056470BD62630868856302E06363086811
:1025000082630868C2630868036470BD6263086818
:102510008363E4E70868026470BD626308688263ED
:102520000868C263F6E70000A40100207FB5002020
:10253000029001200224CDE900040F4E03256946D4
:1025400003953046FEF770FD0094694630460395CA
:102550000194FEF769FD0420CDE900046946039566
:102560003046FEF761FD0820CDE900046946039579
:102570003046FEF759FD7FBD0008014010B5FFF75A
:10258000D5FFBDE8104000F055B8000010B500219F
:102590000848FFF75FFC04210648FFF75BFC0821B1
:1025A0000448FFF757FCBDE810400C210148FFF735
:1025B00051BC0000A401002010B5044A00210448C9
:1025C00000F0DEFD0349086010BD0000AC4A0008C1
:1025D000D92500080800002008B5FFF7CFFFFFF756
:1025E000D5FF684600F02CFA0446FEF713FE0146BC
:1025F00008A0FDF745FE002CF3D19DF80000AB28A4
:10260000EFD19DF80100BA28EBD19DF80200FFF749
:1026100049FFE6E7436865636B206361725F63743B
:10262000726C20696E74657276616C3A2025640D57
:102630000A00000010B58AB0002407941C216846E7
:102640000894FDF710FF2D484FF08041C0E90014B9
:102650004BF67F31C0E9024104618461FFF7CBFB97
:1026600028B14FF48A7226A12FA0FDF709FE079426
:1026700007A922480894FFF727FB28B14FF48D7271
:102680001FA129A0FDF7FCFD602000906420CDE98A
:1026900001040022694619480494FFF749FB28B158
:1026A00040F2231216A120A0FDF7EAFD042269469C
:1026B0001248FFF73DFB28B140F2271210A11AA0E3
:1026C000FDF7DEFD082269460C48FFF731FB28B113
:1026D00040F22B120AA114A0FDF7D2FD0C2269468C
:1026E0000648FFF725FB002805D040F22F1204A171
:1026F0000DA0FDF7C5FD0AB010BD0000A40100202B
:102700002E2E5C447269766572735C6361725F63DE
:102710006F6E74726F6C5C6361725F636F6E747204
:102720006F6C2E63000000004572726F722048616A
:102730006E646C65722061743A25733A25640D0AE3
:102740000000000013B54FF0FF3301226946024834
:10275000FFF700FC00981CBDEC0100201FB54FF4F2
:1027600000700090022001900320084C03906946FD
:102770002046FEF759FC00212015CDE90001029109
:1027800069462046FEF750FC1FBD000000080140CE
:1027900010B5FFF7E3FFBDE8104000F001B80000FE
:1027A00008B51148816941F48041816180690F4910
:1027B00000F4804000900E480C2201604FF4E1319B
:1027C000416000218160C160C0E904128161C16182
:1027D000FFF78EFB002806D0BDE80840B02205A117
:1027E0000DA0FDF74DBD08BD0010024000380140AE
:1027F000EC0100202E2E5C447269766572735C6C6D
:102800006F675F64656275675C6C6F675F64656264
:1028100075672E63000000004572726F7220486178
:102820006E646C65722061743A25733A25640D0AF2
:102830000000000008B5FEF7FBFCFFF75FFC164840
:10284000816941F010018161816901F010010091FD
:10285000816941F020018161816901F020010091CD
:10286000816941F004018161806900F004000090F9
:10287000FFF78EFF09A0FDF703FD14A0FDF700FD93
:102880001DA0FDF7FDFC00F021FAFFF795FE00F01A
:10289000D5FA00F0EFFAFEE7001002400D0A2A2AEE
:1028A0002A2A2A2A2A2A2A2A2A2A2A2A2A2A2A2A88
:1028B0002A2A2A2A2A2A2A2A2A2A2A2A2A2A2A2A78
:1028C0002A2A2A2A2A2A2A0D0A0000002A2A2A2A23
:1028D0002A20202020202020202050524F475241E3
:1028E0004D205354415254202020202020202020CD
:1028F0002A2A2A2A2A0D0A002A2A2A2A2A2A2A2A9F
:102900002A2A2A2A2A2A2A2A2A2A2A2A2A2A2A2A27
:102910002A2A2A2A2A2A2A2A2A2A2A2A2A2A2A2A17
:102920002A0D0A0D0A0000000148406800F0F0BBC3
:102930000C00002010B51748FEF79CFF28B140F2AC
:102940006A2215A11CA0FDF79BFC2248816921F495
:1029500080518161204C20212046FEF7E7FA80213A
:102960002046FEF7E3FA40212046FEF7DFFAA115E4
:102970002046FEF7DBFA194C02212046FEF7D6FA74
:1029800004212046FEF7D2FABDE810400820FEF7E9
:10299000A5BC00004C0100202E2E5C4472697665B7
:1029A00072735C6E726632346C30315C6E72663299
:1029B000346C30312E6300004572726F72204861B2
:1029C0006E646C65722061743A25733A25640D0A51
:1029D000000000000010024000080140000C01400F
:1029E000102809D0202804D040280AD14022BF2135
:1029F00004E02022DF2101E01022EF21002000F07E
:102A0000E5B8704701218140CAB2C843C1B2022073
:102A100000F0DCB808B1002200E00222FD21002015
:102A200000F0D4B810B5012202210448FEF7ECFBF7
:102A3000BDE81040012000F0BBB90000000C0140CF
:102A4000014603484FF47A730022406800F032BA1E
:102A5000000000202DE9FF4120200225002403264C
:102A6000CDE900051D4FCDE9024669463846FEF71F
:102A7000DBFA8020CDE90005694603963846FEF76B
:102A8000D3FA4020CDE90004694638460294FEF7A7
:102A9000CBFAE8010126CDE90006694602943846E2
:102AA000FEF7C2FACDE900560D4D6946029428465C
:102AB000FEF7BAFA042000900A48CDE901046946FD
:102AC0002846FEF7B1FA002205210820FEF724FC73
:102AD0000820FEF714FCBDE8FF810000000801405B
:102AE000000C01400000211010B5FFF7B3FF00F00B
:102AF000B7F8022000F088F90020FFF78BFF0220D2
:102B000000F082F90020FFF77DFF022000F04AF874
:102B100004220E49002000F093F804210B4800F035
:102B200099F80321002000F08FF8002000F03FF812
:102B30004020FFF755FFFFF775FF002211460120E7
:102B400000F08EFA0149486010BD00000C00002022
:102B5000F0B5A3B007466120104E0C468DF88400F6
:102B60004FF48075002229463046FEF74DFB4FF4A6
:102B70007A700090631C01AA21A90948FEF79FFF03
:102B8000012229463046FEF73FFB22460DF10501A2
:102B90003846FDF71BFC23B0F0BD000000080140E3
:102BA0004C0100200246FC21032000F00FB840B188
:102BB000012808D0022808D11022D721062000F0D1
:102BC00005B80022F9E70822F7E770472DE9F0473A
:102BD000A4B00125DFF860809246894604468DF84E
:102BE0008C002F0222AE002239464046FEF70CFB35
:102BF0004FF47A700090022301AA23A90F48FEF730
:102C00005EFF012239464046FEF7FEFA2A460DF1E4
:102C100005013046FDF7DAFB9DF88800012200EA45
:102C2000090040EA0A008DF8880022A9204600F039
:102C3000C5F824B0BDE8F087000801404C01002031
:102C40000A30C0B200F0BAB811300A46C0B2C02192
:102C5000FFF7BCBF0A460146102000F0AFB80000E5
:102C600008B51648816941F4805181618069144931
:102C700000F48050009013484FF4007201604FF44C
:102C80008271416000218160C1600161C0E905126B
:102C90002022C0E90721416281620A21C162FEF758
:102CA00000FE002808D00849BDE8084040F25B2239
:102CB00001F12000FDF7E4BA08BD00000010024059
:102CC000003001404C0100209829000810B5044A4A
:102CD0000021044800F054FA0349086010BD0000C8
:102CE000884A0008ED2C00080000002008B51E48A6
:102CF00019A10246016000F1180181605021C160F4
:102D0000A0F13C0101613C2141610321142000F04C
:102D10000FF9164C6060FFF7E7FE4FF47A7500BFBD
:102D2000FEF778FA014612A0FDF7AAFA284600F04D
:102D30006BF803216846FFF70BFF0023FF2269466B
:102D4000606800F02FF90028EAD0606800F06AF9A6
:102D50000FA0FDF795FAE3E76E726632346C3031FE
:102D60005F71756575650000E400002000000020BB
:102D7000436865636B206E72662061707020696EB7
:102D800074657276616C3A2025640D0A00000000BB
:102D90004661696C20746F20707574206461746181
:102DA00020696E746F2071756575650D0A000000ED
:102DB0000246FE210020FFF709BF000070B5A2B057
:102DC00040F020008DF8000014460DF10100FDF7E1
:102DD000FDFA0B4E4FF48075002229463046FEF76F
:102DE00013FA641CA2B24FF47A7369460548FEF7E1
:102DF000B3FD012229463046FEF706FA22B070BD27
:102E0000000801404C01002010B5EFF3058149B9DD
:102E1000EFF3108131B908490968022905D1EFF3B0
:102E2000118111B16FF0050403E0002408B100F036
:102E300075FF204610BD000074000020EFF30580F0
:102E400058B9EFF3108040B909490868022801D049
:102E500030B109E0EFF3118030B16FF00500704739
:102E600001200860002070474FF0FF3070470000DD
:102E70007400002010B5EFF3058060B9EFF3108007
:102E800048B90B490868022802D0012806D00BE097
:102E9000EFF3118040B16FF0050010BD0220086013
:102EA00000F0A4FF002010BD4FF0FF3010BD000067
:102EB00074000020F8B51D466FF003026FF00206A3
:102EC0004FF00004EFF305834BB9EFF3108333B9F0
:102ED000154B1B68022B17D1EFF31183A3B1F0B18F
:102EE000E9B1E5B9002200926A4601F037FB0128FA
:102EF00017D10098B0B10D494FF080500860BFF372
:102F00004F8FBFF36F8F0DE048B141B12A4601F0FA
:102F100089FA012806D025B16FF0010402E01446B9
:102F200000E034462046F8BD7400002004ED00E0C7
:102F3000F8B514464FF00005EFF305826ABBEFF3D6
:102F4000108252BB164A1268022A02D1EFF3118294
:102F50001ABB10B309B3ACB1D4E902326BB1502A39
:102F60001BD32269CAB1676900FB01F6B74214D3CB
:102F70000025009501F083F807E072B9226962B973
:102F8000626952B9002201F056F8050005D00CB173
:102F9000216800E0002100F05FFE2846F8BD000037
:102FA00074000020F8B51D466FF003026FF00206B2
:102FB0004FF00004EFF305834BB9EFF3108333B9FF
:102FC000164B1B68022B18D1EFF31183ABB100B382
:102FD000F9B1F5B90022134600926A4601F076F97C
:102FE000012818D10098B8B10D494FF08050086001
:102FF000BFF34F8FBFF36F8F0EE050B149B1002385
:103000002A4601F0B3F8012806D025B16FF001047B
:1030100002E0144600E034462046F8BD740000206B
:1030200004ED00E010B5EFF3058149B9EFF310812D
:1030300031B90A490968022905D1EFF3118111B1AB
:103040006FF0050404E028B10024214601F04AF89D
:10305000204610BD6FF00304FAE700007400002062
:10306000F8B5144603460E464FF00005EFF3058011
:10307000E8BBEFF31080D0BB24480068022802D1DF
:10308000EFF3118098BB93B39E423DD84CB1A0683A
:103090000028E06803D0502836D3012002E008B1B0
:1030A00032E00020012B05D010B31846A26800F0D2
:1030B000A2FF20E040B10320009000221146012031
:1030C000A36800F0DCFF04E003220021012000F0EF
:1030D000B2FF050018D086B100231A46194601F048
:1030E00045F8012809D0284600F0CAFD00250BE06C
:1030F000184600F063FF050006D00CB1216800E01F
:103100000021284600F0A8FD2846F8BD74000020E4
:1031100038B50024E51E002804D000BFEFF3058178
:1031200069B902E06FF0030423E0EFF3108131B9D5
:1031300011490968022914D1EFF3118189B10021E5
:103140000091694601F020F9012811D1009880B161
:103150000A494FF080500860BFF34F8FBFF36F8F65
:1031600007E000231A46194601F000F8012800D0B4
:103170002C46204638BD00007400002004ED00E01D
:10318000F0B585B04FEA01034FF00004EFF305817D
:103190000394A1BBEFF3108189BB2149096802297F
:1031A00002D1EFF3118151BB48B3802618218DF86D
:1031B000104004AD42B3176807B13D4697691FB18F
:1031C00039467F1E382F02D21779FF0702D0002020
:1031D00005B0F0BD576907B1BE08D2F808C0BCF110
:1031E000000F0DD0D4685C2C18D312693AB137B1F6
:1031F0008DE806103246294601F065FA03900DE08D
:10320000D7685FB912694AB903AACDE90012B2B210
:10321000294601F02BFA012800D003940398D7E740
:10322000740000202DE9F041134C0F4605466669F5
:103230002068001D00F016FC681C07D137B121681A
:10324000BDE8F0410D48091D00F05CBC2068354424
:10325000B5424560216805D2A068BDE8F041091D6E
:1032600000F038BC6068091D00F034FC206B85421A
:1032700000D22563BDE8F081240000202007002053
:103280002DE9F041054600F049FC2D4C2069401C19
:10329000206120682B4F10B1E06930B32BE025602E
:1032A0002069012827D1002606EB860007EB800065
:1032B00000F002FC761C382EF6D3234800F0FCFB0D
:1032C0002148143000F0F8FB1F48283000F0F4FBD0
:1032D0001D483C3000F0F0FB1B48503000F0ECFB88
:1032E000194860601430A06005E02068E96AC06A8F
:1032F000884200D82560E06A401CE0626864E86AA1
:10330000A169884200D9A06100EB800007EB800032
:10331000291D00F0F7FB00F021FCE06900280CD02B
:103320002068E96AC06A884207D208494FF0805095
:103330000860BFF34F8FBFF36F8FBDE8F0810000CF
:103340002400002070020020D006002004ED00E0E0
:1033500038B500F0E3FB104CA068C8B90F4800F086
:10336000ABFB0E48143000F0A7FB0C482060143073
:1033700060600A4B00202833009003F150021021B6
:103380000A2000F07CFEA06010B105A100F064FCF2
:10339000BDE8384000F0E2BB6000002034070020A8
:1033A000546D72510000000030B4026C0B46002ACC
:1033B0000BD0C1681144C1604468A14201D30168C7
:1033C000C16030BC1846FDF701B830BC70472DE92C
:1033D000F041856B174604460026026C82B1C7B1E6
:1033E000E068FCF7F3FFE168206C091AE1602268ED
:1033F000914202D26168081AE060022F16D017E0ED
:103400002068A8B9606801F001FA064600206060F3
:103410000EE0A068FCF7DAFF216CA0680844A06009
:103420006168884204D32068A06001E005B16D1E88
:103430006D1CA5633046BDE8F08110B5044690F8D8
:10344000590058B101280CD002280FD0502080F329
:103450001188BFF34F8FBFF36F8FFEE7206B00F033
:1034600091FB2046BDE8104000F08CBB10BD000071
:1034700010484FF44061420706D0C01D0D4920F0AE
:103480000700411AC1F540610B4A00230144C2E91B
:1034900000030839103A21F0070111604B600B60FE
:1034A0000B1AC0E9001393604FF000405360D060E6
:1034B00070470000040F002088000020144E154CB7
:1034C000A6F29C474FF08058DFF84C9012E000BF06
:1034D00000F024FBF068C568281D00F0C3FA2069DD
:1034E000401E2061E068401EE06000F037FB284687
:1034F000FFF7A3FFE0680028EAD138680128F9D96E
:10350000C9F80080BFF34F8FBFF36F8FF2E7000061
:103510000C0700202400002004ED00E070B51D46DB
:10352000049C51B1C4F80020C4E90F0101212046D8
:1035300000F0D8FD84F84C5070BD2460F4E72DE90C
:10354000F0470E46DDE90984174682469100994608
:10355000089DA522206BFCF77EFF6FF00301206B16
:1035600001EB8701084420F00707780707D05020B7
:1035700080F31188BFF34F8FBFF36F8FFEE72218E0
:10358000315C82F83410315C11B1401C1028F6D344
:10359000002684F84360382D00D33725E562C4E95E
:1035A0001356201D00F093FA04F1180000F08FFA72
:1035B0002461C5F138006462A061666584F85860D2
:1035C0004A465146384600F03BFA2060B8F1000FF9
:1035D00001D0C8F80040BDE8F087000030B51149BF
:1035E00000E011460A688242FBD34B685C188442B3
:1035F00003D1406818444860084643681C18944248
:1036000009D1084C103C2468A24209D052681A44DF
:1036100042600A6812680260814200D0086030BDD2
:103620000460F9E78800002070B5002441600B4D6C
:103630000061914206D8D11A8269914206D2011DD9
:10364000686807E09A4203D2994201D3012403E05B
:10365000011D286800F03EFA204670BD6000002081
:1036600010B5044600F05AFAA06B28B15FF00004D0
:1036700000F074FA204610BD0124F9E730B589B096
:10368000304D55E00498002806DADDE90601059A78
:103690009047049800284BDB069C606910B1201D00
:1036A00000F0E0F902A800F0B9F8024604980A28F0
:1036B0003ED2DFE800F00505053D263705053D262D
:1036C0000598A169034601442046FFF7ADFF00B30A
:1036D000616A20468847E069012829D100200090CE
:1036E0000598A169002342181946204601F098F96F
:1036F00078B9502080F31188BFF34F8FBFF36F8FDD
:10370000FEE70598A06128B1811813462046FFF70F
:103710008BFF0DE0502080F31188BFF34F8FBFF374
:103720006F8FFEE794F82C0010B9204600F02AFABB
:10373000002204A9A86800F075FE0028A2D109B0F3
:1037400030BD0000600000202DE9FC410F46054619
:1037500000F090FB01A800F061F80446019818B150
:1037600001F0CCF8BDE8FC81224EAFB17068006872
:10377000A8B30027291B3A46B06800F0ADFA01F063
:10378000BDF80028EED11C494FF080500860BFF30F
:103790004F8FBFF36F8FE5E7A542EBD801F0AEF88E
:1037A00030682746C068C468201D00F05BF9E069F6
:1037B000012810D1A0692B4641193A462046FFF74F
:1037C00033FF40B100200346014600902A462046C0
:1037D00001F026F920B1616A20468847C2E707E078
:1037E000502080F31188BFF34F8FBFF36F8FFEE738
:1037F0000127BFE76000002004ED00E006484168B3
:10380000096829B14168C968C96849680163704796
:103810004FF0FF31FAE700002400002070B50546A4
:1038200000F08AFF064E04463069844203D200F05D
:1038300009F8012000E0002028602046346170BDB6
:1038400060000020F8B5194D1FE0C068C468066824
:10385000201D00F007F9616A20468847E0690128C9
:1038600013D1A0693044B04206D924616060211DA3
:10387000286800F02FF908E0002003460146009078
:103880003246204601F0CCF838B12868016800299A
:10389000DBD16968C5E90010F8BD502080F31188BC
:1038A000BFF34F8FBFF36F8FFEE700006000002073
:1038B00008484068401C4FF0500080F3118804D045
:1038C000BFF34F8FBFF36F8FFEE7BFF34F8FBFF391
:1038D0006F8FFEE790000020074C2068016841B11F
:1038E000C0680021D0F80000FFF72EFFFFF7C6FEEA
:1038F000F3E701210020F7E7600000202DE9F04107
:10390000044600F00BF994F9455004F1240609E04F
:10391000606A48B1304600F0B9FF08B100F02CFAF7
:103920006D1E6DB2002DF3DC4FF0FF3684F845605C
:1039300000F014F900F0F2F894F9445004F1100783
:1039400009E0206948B1384600F0A0FF08B100F056
:1039500013FA6D1E6DB2002DF3DC84F84460BDE8EF
:10396000F04100F0FBB800002DE9F04105460027CA
:1039700000F080FA314E306808B9FFF779FDF06841
:1039800005424BD1C5B3083568070ED005F00700D6
:10399000C0F108000544680707D0502080F3118863
:1039A000BFF34F8FBFF36F8FFEE72DB37068854273
:1039B00034D82248103001460C6801E020460C46FD
:1039C0006168A94202D221680029F7D131688C428E
:1039D00024D007682168016060680837411B1029FE
:1039E0000FD96019420708D0502080F31188BFF327
:1039F0004F8FBFF36F8FFEE710E041606560FFF708
:103A0000EDFD61687068401A7060B268904200D243
:103A1000B060F06801430020C4E9000100F06EFFCF
:103A2000780707D0502080F31188BFF34F8FBFF382
:103A30006F8FFEE73846BDE8F08100007800002077
:103A400010B5031F4FF080741C601B1F21F0010193
:103A50001960191F024B0B60143940380A6010BD01
:103A6000B1380008D0E9013201699A60D0E9012338
:103A70005A604A68824201D182684A60002202612B
:103A80000868401E0860086870470000034B036028
:103A900003F15C0008608020106070474C08002033
:103AA000044B036003F15C0008604FF48070106009
:103AB00070470000A80A002000F108014FF0FF3213
:103AC000C0E90112C160016100210160704700215D
:103AD0000161704730B50B685A1C02D000F1080232
:103AE00002E0026904E02246546825689D42FAD942
:103AF00053684B6099608A60516008610168491C95
:103B0000016030BD42684A6093688B609368596079
:103B1000916008610168491C01607047502080F382
:103B20001188BFF34F8FBFF36F8F0A494868401C5D
:103B3000486001280CD10848006810F0FF0F07D03A
:103B4000502080F31188BFF34F8FBFF36F8FFEE7D4
:103B5000704700009000002004ED00E0084948682C
:103B600028B1401E486001D180F311887047502071
:103B700080F31188BFF34F8FBFF36F8FFEE7000014
:103B80009000002070B5002827D0144DA0F1080443
:103B90006168E868014207D1502080F31188BFF3C3
:103BA0004F8FBFF36F8FFEE722683AB1502080F34A
:103BB0001188BFF34F8FBFF36F8FFEE781436160C2
:103BC00000F058F960686968084468602046FFF7AB
:103BD00005FDBDE8704000F091BE70BD780000208A
:103BE0004FF0E02000210161816105494FF47A72B4
:103BF0000968B1FBF2F1491E41610721016170477B
:103C00002000002010B5FCF717FB114910280ED337
:103C100000F1E02090F8F0030A78904207D250209B
:103C200080F31188BFF34F8FBFF36F8FFEE7094812
:103C30000068896800F4E060884207D9502080F36A
:103C40001188BFF34F8FBFF36F8FFEE710BD0000E9
:103C5000900000200CED00E010B5084B002200BFE2
:103C600053F832401CB1521C082AF9D310BD43F856
:103C7000321003EBC201486010BD0000300200208A
:103C800010B504000AD000F013F894F8460000289C
:103C90000CD12046BDE81040FFF774BF502080F3E0
:103CA0001188BFF34F8FBFF36F8FFEE710BD000089
:103CB000084A002102EBC1035B68834206D1002061
:103CC00042F8310002EBC10148607047491C0829E5
:103CD000F0D370473002002070B515460E460446FA
:103CE000FFF71CFF94F944100020491C01D184F80F
:103CF000440094F94510491C01D184F84500FFF7B0
:103D00002DFFA06B28B92A46314604F1240000F0AB
:103D100051F82046BDE87040FFF7F0BD10B5020035
:103D200014D00F48806B38B1502080F31188BFF356
:103D30004F8FBFF36F8FFEE700F09CF80021104615
:103D4000FFF770FA00F0DAFD002807D105494FF0BF
:103D500080500860BFF34F8FBFF36F8F10BD00001E
:103D60002400002004ED00E002498A6A02604969EB
:103D700041607047240000200149012048627047DB
:103D80002400002010B50C4650B1094909681831CB
:103D9000FFF7A0FE2046BDE810400121FFF742BA20
:103DA000502080F31188BFF34F8FBFF36F8FFEE772
:103DB0002400002070B514460D4668B10A49096810
:103DC0001831FFF79FFE0CB14FF0FF352146284612
:103DD000BDE87040FFF726BA502080F31188BFF38A
:103DE0004F8FBFF36F8FFEE72400002030B587B000
:103DF0000024039405AA04A903A80494FFF746FE2F
:103E0000DDE903010094CDE90110002315A1174855
:103E1000059A00F058FC164D002868631FD000F08A
:103E2000CFFD012809D0401C19D1502080F3118802
:103E3000BFF34F8FBFF36F8FFEE7502080F31188E1
:103E4000BFF34F8FBFF36F8F4FF0FF302863012018
:103E5000E8616C6107B0BDE8304000F045B807B0DC
:103E600030BD000049444C4500000000BD3400084E
:103E7000240000200248816B491C816370470000C8
:103E800024000020164810B5816B11B10121416258
:103E900010BD002141628169124A01E0B9B1491E99
:103EA00001EB810352F82330002BF7D001EB8103A3
:103EB00002EB830202F1080453685B685360A3427B
:103EC00001D15B685360DA680260816110BD5020E7
:103ED00080F31188BFF34F8FBFF36F8FFEE70000B1
:103EE00024000020700200201CB5264908780190AB
:103EF000FF20087008788DF800009DF800009DF8FC
:103F0000002000F0F000904207D0502080F311888C
:103F1000BFF34F8FBFF36F8FFEE79DF800001A4B82
:103F200000F0500018700720986005E09DF8002010
:103F300052008DF80020401E9DF800201206F5D496
:103F40009860032807D0502080F31188BFF34F8F6B
:103F5000BFF36F8FFEE74FF44070986001980870D0
:103F60000A48016841F470010160016841F0704144
:103F70000160FFF735FE00205860FCF727F90020AC
:103F80001CBD000000E400E09000002020ED00E0F7
:103F900010B5502080F31188BFF34F8FBFF36F8FA0
:103FA00000F0D0FB18B104494FF0805008600020A9
:103FB00080F3118810BD000004ED00E010B50C4640
:103FC00048B184420FD9502080F31188BFF34F8F3E
:103FD000BFF36F8FFEE7502080F31188BFF34F8F40
:103FE000BFF36F8FFEE70222002100F024F80028C3
:103FF00000D0846310BD38B50C4648B184420FD957
:10400000502080F31188BFF34F8FBFF36F8FFEE70F
:10401000502080F31188BFF34F8FBFF36F8FFEE7FF
:104020000221134600220091114600F028F80028D2
:1040300000D0846338BDF8B517460E46050014D08D
:10404000DEB105FB06F05030FFF78EFC04000AD00D
:10405000002084F8460004F150023B4631462846D1
:104060000094FFF75BFA2046F8BD502080F31188DA
:10407000BFF34F8FBFF36F8FFEE70020E3E738B544
:10408000049D18B153B1CAB181B120E0502080F332
:104090001188BFF34F8FBFF36F8FFEE7502080F37F
:1040A0001188BFF34F8FBFF36F8FFEE7502080F36F
:1040B0001188BFF34F8FBFF36F8FFEE739B15020E8
:1040C00080F31188BFF34F8FBFF36F8FFEE750244B
:1040D0001C46012384F846302B460094FFF71EFA55
:1040E000204638BD70B50D46040025D0FFF716FDFB
:1040F000D4E90F20216802FB001161600021A16357
:104100002168A1600A46D4E90F01401E00FB01218D
:10411000E16021464FF0FF3001F8440F487004F190
:1041200010008DB1FFF7C8FC04F12400FFF7C4FCB8
:10413000FFF714FD012070BD502080F31188BFF3FC
:104140004F8FBFF36F8FFEE721690029F0D000F099
:104150009DFB0028ECD004494FF080500860BFF36D
:104160004F8FBFF36F8FE3E704ED00E02DE9FF47CA
:1041700082B01D468A464FF00008040003D0BAF111
:10418000000F08D011E0502080F31188BFF34F8F4B
:10419000BFF36F8FFEE7206C38B1502080F3118899
:1041A000BFF34F8FBFF36F8FFEE7022D0AD1E06B95
:1041B000012807D0502080F31188BFF34F8FBFF341
:1041C0006F8FFEE700F0AAFA3F4F4FF000094FF063
:1041D000805648B9049838B1502080F31188BFF355
:1041E0004F8FBFF36F8FFEE7FFF798FCA06BE16B7B
:1041F000884207D3022D05D00498D0B1B8F1000F42
:104200001AD01EE02A4651462046FFF7E0F8616AC0
:1042100019B104F1240000F039FB20B13E60BFF376
:104220004F8FBFF36F8FFFF799FC012006B0BDE8F9
:10423000F087FFF793FC22E06846FFF795FD4FF00B
:104240000108FFF78BFCFFF715FEFFF767FC94F9F9
:104250004400401C01D184F8449094F94500401C6E
:1042600001D184F84590FFF779FC04A9684600F075
:10427000C3F930B12046FFF741FB00F03FFB0020BF
:10428000D4E7FFF74BFCA06BE16B884213D1FFF73B
:1042900065FC04F110000499FFF774FD2046FFF758
:1042A0002DFB00F02BFB00289ED13E60BFF34F8F0B
:1042B000BFF36F8F98E7FFF751FC2046FFF71EFB17
:1042C00000F01CFB90E7000004ED00E02DE9F04752
:1042D0001F4690468946040003D0B9F1000F08D06C
:1042E00011E0502080F31188BFF34F8FBFF36F8F21
:1042F000FEE7206C38B1502080F31188BFF34F8F58
:10430000BFF36F8FFEE7022F0AD1E06B012807D0C1
:10431000502080F31188BFF34F8FBFF36F8FFEE7FC
:10432000FFF770FC5020EFF3118680F31188BFF384
:104330004F8FBFF36F8FA06BE16B884206D3022FC4
:1043400004D0002086F31188BDE8F08794F9455029
:104350003A4649462046FFF73AF8681C04D06D1CDF
:1043600084F845500120EDE7606A0028FAD004F196
:10437000240000F08BFA0028F4D0B8F1000FF1D03F
:104380000121C8F80010EDE770B50E46040009D011
:10439000206C78B1502080F31188BFF34F8FBFF3AA
:1043A0006F8FFEE7502080F31188BFF34F8FBFF36C
:1043B0006F8FFEE7206848B9606838B1502080F3FD
:1043C0001188BFF34F8FBFF36F8FFEE7FFF71AFC23
:1043D0005020EFF3118580F31188BFF34F8FBFF3A7
:1043E0006F8FA16BE06B884218D994F94500491C86
:1043F000A163411C04D0401C84F8450001200EE05C
:10440000606A0028FAD004F1240000F03FFA002886
:10441000F4D0002EF2D001203060EFE7002085F3C9
:10442000118870BD2DE9F747002683B08A46040045
:1044300003D0BAF1000F08D011E0502080F31188AA
:10444000BFF34F8FBFF36F8FFEE7206C38B1502062
:1044500080F31188BFF34F8FBFF36F8FFEE700F03B
:104460005DF9DFF8F4804FF000094FF0805748B94C
:10447000059838B1502080F31188BFF34F8FBFF3F8
:104480006F8FFEE7FFF74AFBA56BC5B1514620468B
:10449000FEF78AFF6D1EA563206950B104F110007C
:1044A00000F0F4F928B1C8F80070BFF34F8FBFF3E4
:1044B0006F8FFFF753FB012006B0BDE8F08705982A
:1044C00008B11EB106E0FFF749FB27E06846FFF799
:1044D0004BFC0126FFF742FBFFF7CCFCFFF71EFB6E
:1044E00094F94400401C01D184F8449094F94500AB
:1044F000401C01D184F84590FFF730FB05A96846C0
:1045000000F07AF8002820460AD0FFF7F7F900F00B
:10451000F5F92046FFF7A4F80028B3D00020CBE738
:10452000FFF79EF890B104F124000599FFF72AFCEB
:104530002046FFF7E3F900F0E1F90028A2D1C8F81E
:104540000070BFF34F8FBFF36F8F9BE72046FFF7DD
:10455000D5F900F0D3F995E704ED00E02DE9F04737
:1045600090468946040003D0B9F1000F08D011E04D
:10457000502080F31188BFF34F8FBFF36F8FFEE79A
:10458000206C38B1502080F31188BFF34F8FBFF3F8
:104590006F8FFEE7FFF736FB5020EFF3118680F3B5
:1045A0001188BFF34F8FBFF36F8FA76BF7B194F9EB
:1045B000445049462046FEF7F7FE7F1EA763681C5D
:1045C00004D06D1C84F84450012010E020690028BC
:1045D000FAD004F1100000F059F90028F4D0B8F135
:1045E000000FF1D00121C8F80010EDE7002086F39C
:1045F0001188BDE8F08700002DE9F0410C46050068
:1046000011D0C4B1FFF78AFA174B5A696E68206857
:10461000911B471C17D02F689B6A9F4219D0964266
:1046200017D8012410E0502080F31188BFF34F8F7A
:10463000BFF36F8FFEE7502080F31188BFF34F8FD9
:10464000BFF36F8FFEE70024FFF788FA2046BDE82E
:10465000F081884205D9401A20602846FFF784FB84
:10466000F1E700202060DCE7240000202DE9FF5F57
:104670008346DDE90E87994616468A469000FFF785
:1046800073F905001CD05C20FFF76EF9040014D00C
:104690000020256384F85900CDE90240CDE9008768
:1046A0004B46324651465846FEF749FF2046FEF734
:1046B000E7FD012004B0BDE8F09F2846FFF762FA4D
:1046C0004FF0FF30F6E7F0B585B0DDE90B640A9DE9
:1046D000A6B1DCB15C2700972663022684F85960F6
:1046E000002604AFCDE90246CDE90057FEF727FFCB
:1046F0002046FEF7C5FD049805B0F0BD502080F3BC
:104700001188BFF34F8FBFF36F8FFEE7502080F308
:104710001188BFF34F8FBFF36F8FFEE70548C16964
:1047200019B1806B18B1002070470120704702203A
:1047300070470000240000200148406970470000D5
:10474000240000202DE9F0412E4C0027A06B40B141
:10475000206A401C2062606A00B101273846BDE82B
:10476000F0816669761C666113D16068006838B1B3
:10477000502080F31188BFF34F8FBFF36F8FFEE798
:104780006068A1686160A060A06A401CA062FFF739
:1047900035F8206BDFF87080864209D360680068C6
:1047A00080B16068C068C568686886420DD22063C1
:1047B0002068C06A00EB800158F821000128CAD99E
:1047C0000127C8E74FF0FF30F1E7281DFFF74AF94E
:1047D000A86A18B105F11800FFF744F9E86AA16961
:1047E000884200D9A06100EB800108EB8100291DFF
:1047F000FFF788F9E86A2168C96A8842CED30127A1
:10480000CCE70000240000207002002070B50400F6
:104810004FF0000133D01B4D2868844207D0502050
:1048200080F31188BFF34F8FBFF36F8FFEE7206DCA
:1048300038B1401E2065E36CE26A9A421FD040B155
:104840001DE0502080F31188BFF34F8FBFF36F8FAF
:10485000FEE7201DFFF706F9E06CE062C0F13800CA
:10486000A061E06AA969884200D9A861064900EB05
:10487000800001EB8000211DFFF744F9012108466B
:1048800070BD0000240000207002002070B5C068D8
:10489000C46854B104F118000646FFF7E3F8144D5C
:1048A000A86B50B13146134815E0502080F31188B1
:1048B000BFF34F8FBFF36F8FFEE7201DFFF7D2F8D6
:1048C000E06AA969884200D9A8610B4900EB800021
:1048D00001EB8000211DFFF715F9E06A2968C96A1C
:1048E000884202D90120686270BD002070BD0000BE
:1048F00024000020F8060020700200202DE9F04777
:104900002C4D00242746A86B38B1FFF707F9A86B98
:10491000401EA863A86B40B146E0502080F3118888
:10492000BFF34F8FBFF36F8FFEE72969224E01203F
:10493000D1B3A6F5916980463068E0B1F068C468EB
:1049400004F11800FFF78EF8201DFFF78BF8E06ADE
:10495000A969884200D9A86100EB800109EB8100B8
:10496000211DFFF7CFF8E06A2968C96A8842E3D3BE
:10497000C5F82480E0E70CB1FEF740FF2C6A4CB18B
:104980004FEA0806FFF7DEFE00B16E62641EF9D141
:1049900000202862686A38B1084901273807086092
:1049A000BFF34F8FBFF36F8FFFF7D8F83846BDE8DE
:1049B000F087000024000020F806002004ED00E04D
:1049C00010B586B0FEF7C4FC114CA068B8B1002049
:1049D0000390049005AA04A903A8FFF761F8DDE994
:1049E000032102208DE8070000230AA10B48059A45
:1049F000FFF769FEE06010B106B0012010BD502045
:104A000080F31188BFF34F8FBFF36F8FFEE7000075
:104A100060000020546D722053766300D93800087E
:104A20002DE9FF411E46134602000A9D4FF000008B
:104A300016D0144CA768002F0FD0CDE900130292B6
:104A4000062917DAFFF76AFE02284FF000030FD09D
:104A500000226946A068FFF789FB04B0BDE8F08139
:104A6000502080F31188BFF34F8FBFF36F8FFEE7A5
:104A70002A46EEE70023324669463846FFF726FC11
:104A8000EBE7000060000020F44A0008000000008E
:104A9000000000000000000000000000F401000021
:104AA000290000000000000000000000044B000886
:104AB00000000000000000000000000000000000F6
:104AC000F4010000280000000000000000000000C9
:104AD00000000000000000000102030406070809AE
:104AE00000000000010203043A7474003A74740078
:104AF0003A7474006E726632346C30315F7468726E
:104B0000656164006361725F636F6E74726F6C5F86
:104B10007468726561640000384B00080000002072
:104B2000A800000028010008E04B0008A8000020B1
:104B3000B82100004401000800000000000000004F
:104B4000000000007735F0D30000000001000000F5
:104B500010000000000000000024F400000000002D
:104B60000000000000000000000000000000000045
:104B70000000000000000000000000000000000035
:104B80000000000000000000000000000000000025
:104B90000000000000000000000000000000000015
:104BA0000000000000000000000000000000000005
:104BB00000000000000000000000000000000000F5
:104BC000000000000000000000000000AAAAAAAA3D
:104BD00000000000000000000000000000000000D5
:04000005080000ED02
:00000001FF
